:020000000F28C7
:10000800FE00030EF0000408F1000A08F200831253
:100018007F08F3005A2810286C20F800F501F60133
:10002800F70183011728033083168500FC308312FB
:100038008500FC3083168700FC308312870003306C
:10004800831691000430831299008B178B170B17B6
:100058008B160B1181018316811201128111011473
:10006800811401158B170330F400F40B392883121F
:1000780087108B1281010B158B16003076020B301E
:1000880003197502031C41287708031D4D28013008
:100098004E280030F4007408F700770C8312031C14
:1000A800871003188714F501F60141280130F50778
:1000B8000318F60A0030F6070B117308FF007208E0
:1000C8008A0071088400700E8300FE0E7E0E0900FF
:0200D8000134F1
:02400E00E5FFCC
:00000001FF
