:020000000F28C7
:10000800FE00030EF0000408F1000A08F200831253
:100018007F08F30099281028AB20FD00F801F901AA
:10002800FA01FB01FC0183011928033083168500BE
:10003800FC3083128500FC3083168700FC30831265
:1000480087000330831691000430831299008B17C0
:100058008B170B178B160B11810183168112011256
:1000680081110114811401158B172130F700F70B4A
:100078003B28831207108B12810100307B020B3062
:1000880003197A02031C5B287C08031D4D280130E4
:100098004E280030F7007708FC007C0C8312031C04
:1000A800071003180714FA01FB01F801F90183127C
:1000B800191F76287D03031D76280130F8070318D9
:1000C800F90A0030F907191F76287D03031D7628E1
:1000D8000A3078067904031D76280B158B16FD0166
:1000E800F801F9018120003A031941280B11831204
:1000F80007108B12FD01FD0A4128F601F401F501F4
:1001080083120719972800307502323003197402D8
:10011800031895280130F4070318F50A0030F5078D
:100128008428F601F60A760808000130FA07031851
:10013800FB0A0030FB070B117308FF0072088A00E6
:1001480071088400700E8300FE0E7E0E09000134D3
:02400E00E5FFCC
:00000001FF
