:020000000F28C7
:10000800FE00030EF0000408F1000A08F200831253
:100018007F08F300832810289520FB00F801F901D8
:10002800FA0183011728033083168500FC308312F8
:100038008500FC3083168700FC308312870003306C
:10004800831691000430831299008B178B170B17B6
:100058008B160B1181018316811201128111011473
:10006800811401158B170330F700F70B3928831219
:1000780087108B128101003079020B300319780246
:10008800031C57287A08031D4B2801304C280030E0
:10009800F7007708FA007A0C8312031C87100318FC
:1000A8008714F801F9018312191F60287B03031DC7
:1000B80060280B158B16FB016B20003A03193F28AB
:1000C8000B11831287108B12FB01FB0A3F28F601E4
:1000D800F401F501831207198128003075023230C6
:1000E8000319740203187F280130F4070318F50A6E
:1000F8000030F5076E28F601F60A76080800013088
:10010800F8070318F90A0030F9070B117308FF0004
:1001180072088A0071088400700E8300FE0E7E0E3D
:040128000900013495
:02400E00E5FFCC
:00000001FF
